:100000000C94EC000C9414010C9414010C94311712
:100010000C945B170C9485170C9414010C94140128
:100020000C9414010C9414010C9414010C941401FC
:100030000C9414010C9414010C9414010C941401EC
:100040000C947C1B0C9414010C944C010C948801AE
:100050000C9414010C9414010C9414010C941401CC
:100060000C9414010C9414010A0240024A025A0230
:1000700069027B02C502C5021B02C502C502C50298
:10008000C502C502C502C702DF02F70223036103EE
:100090007D0384038D039B03F0020803340376037E
:1000A000C502C502C502C502D80219035703A7033A
:1000B000B203BD03C5020904C502C502C502C502DB
:1000C000C502C502C502C502C502C502C502C502F8
:1000D000C502C502C502C502C502CD03DE0300C2CA
:1000E00001000100110011000C0000E100000A00F5
:1000F0002500250021000096000019003900390074
:100100003600127A00001F0046004600440080704E
:10011000000022004D004D004A00004B0000360058
:10012000750075007200403800004A009C009C0079
:100130009900802500007200EC00EC00E900C0127C
:100140000000E900DA01DA01D70160090000D701F7
:10015000B603B603B303B0040000B3036E076E0723
:100160006B07580200006E07DC0EDC0ED80E2C0167
:100170000000DC0EC11DC11DBE1D000000002400DA
:1001800027002A0000000000250028002B000000A6
:1001900000002300260029000404040404040404CD
:1001A0000202020202020303030303030102040822
:1001B00010204080010204081020010204081020D1
:1001C0000000000700020100000304060000000018
:1001D000000000003A06330611241FBECFEFD8E01E
:1001E000DEBFCDBF13E0A0E0B1E0E4E6F1E402C081
:1001F00005900D92A037B107D9F715E0A0E7B3E05D
:1002000001C01D92A53DB107E1F711E0C6EDD1E0B7
:1002100004C02297FE010E94A120C43DD107C9F766
:100220000E94D91D0C94A5200C940000CF92DF925F
:10023000EF92FF920F931F93CF93DF938C016B018B
:100240007A01C0E0D0E01CC0F601EC0FFD1F608118
:100250000115110521F00130110589F405C0E09167
:100260000C04F0910D0404C0E0910E04F0910F0411
:10027000A081B1812D913C91CF01F9010995219681
:10028000CE15DF0508F3DF91CF911F910F91FF90FD
:10029000EF90DF90CF9008951F920F920FB60F92BC
:1002A00011242F933F934F938F939F93EF93FF933B
:1002B0004091C60020917205309173052F5F3F4F2A
:1002C00080917605909177052823392380917405D4
:1002D000909175052817390779F0809172059091F2
:1002E0007305E0917805F0917905E80FF91F4083D7
:1002F0003093730520937205FF91EF919F918F9139
:100300004F913F912F910F900FBE0F901F90189516
:100310001F920F920FB60F9211242F933F938F933A
:100320009F93EF93FF9320917C0530917D05809101
:100330007A0590917B0528173907E9F080917C05B3
:1003400090917D05E0918005F0918105E80FF91FFE
:1003500080818093C60080917C0590917D050196F7
:1003600020917E0530917F058223932390937D0514
:1003700080937C0510C020917A0530917B05809197
:100380007C0590917D052817390729F48091C100DB
:100390008F7D8093C100FF91EF919F918F913F914D
:1003A0002F910F900FBE0F901F901895423049F477
:1003B00020E031E040E050E00E948420C901DA01F1
:1003C0000FC06F3F71058105910549F044F0413040
:1003D00031F4DC01CB019070A070B07001C003C09B
:1003E000BC012A2F9B2F822F0895EF92FF920F932B
:1003F0001F93CF93DF9390E0FC013197EB33F1052E
:1004000008F0C3C0EC5CFF4FEE0FFF1F0590F491A6
:10041000E02D09948091B003C82FD0E0C258DC4F82
:1004200081E088836091500470915104809152045E
:1004300090915304E9C1E0905004F0905104009170
:100440005204109153048091B003C82FD0E0C258D9
:10045000DC4F89E08883C801B7010E94E51E882728
:1004600077FD8095982F0E94181F9B01AC01C80151
:10047000B7010E94141E20E030E44CE156E4C2C1F2
:10048000E091B003F0E0E258FC4F82E0808380917D
:1004900064045AC18091B003E82FF0E0E258FC4FA9
:1004A00083E0808380917503882311F086E64CC138
:1004B00084E34AC18091B003C82FD0E0C258DC4F1A
:1004C00084E08883E0902F04F090300400E010E096
:1004D000B0C1E091B003F0E0E258FC4F85E08083CA
:1004E000809155042AE0829FC00111242091540478
:1004F000280F21832AC1E090BB0360913104E616E6
:1005000008F041C070E0882777FD8095982F0E9401
:10051000181F9B01AC01609110047091110480912F
:100520001204909113040E947D1E20E030E443E009
:1005300055E40E94CC1F26E636E646E850E40E94C9
:100540007D1E0E94E51E6093BC037093BD038093E3
:10055000BE039093BF03E091B003F0E0E258FC4F7C
:1005600026E02083272F382F492F552747FD5A95FE
:100570002F70AE2DA295A07FA22BA1836283E3945E
:10058000E092BB0362C11092BB0380E05FC1809127
:10059000B003C82FD0E0C258DC4F80E1888360915F
:1005A000600470916104809162049091630499C029
:1005B000E091B003F0E0E258FC4F81E2ABC08091E3
:1005C000B003C82FD0E0C258DC4F81E1888360912E
:1005D000560470915704809158049091590481C039
:1005E000E091B003F0E0E258FC4F89E193C08091C4
:1005F000B003C82FD0E0C258DC4F82E188836091FD
:100600004C0470914D0480914E0490914F0469C048
:100610008091B003C82FD0E0C258DC4F8AE18883B4
:10062000E0904C04F0904D0400914E0410914F0462
:100630002BC0E091B003F0E0E258FC4F82E28083EF
:100640008091710381C08091B003C82FD0E0C2585F
:10065000DC4F83E188836091320470913304809190
:100660003404909135043DC08091B003C82FD0E090
:10067000C258DC4F8BE18883E0903204F090330461
:100680000091340410913504C801B7010E94E51EA1
:100690000E94181F9B01AC01C801B7010E94141EE3
:1006A00020E030E44CE156E40E94CC1F1AC0E091F7
:1006B000B003F0E0E258FC4F83E280838091700346
:1006C00043C08091B003C82FD0E0C258DC4F84E112
:1006D000888360915A0470915B0480915C049091CE
:1006E0005D040E94E51E7B018C01A3C0E091B00374
:1006F000F0E0E258FC4F8CE10DC0E091B003F0E077
:10070000E258FC4F85E106C0E091B003F0E0E2580A
:10071000FC4F86E18083118218C0E091B003F0E0C5
:10072000E258FC4F87E180838091B10381838091FF
:10073000B20382838AC0E091B003F0E0E258FC4F3C
:1007400088E180838091B303818312827EC080918F
:10075000B003C82FD0E0C258DC4F84E28883E09019
:10076000660415C08091B003C82FD0E0C258DC4F9A
:1007700085E28883E09065040AC08091B003C82FA9
:10078000D0E0C258DC4F86E28883E090670484E6BC
:100790009E2D98027001112448C08091B003C82F8B
:1007A000D0E0C258DC4F8AE38883609110047091D6
:1007B0001104809112049091130426C08091B0031B
:1007C000C82FD0E0C258DC4F8BE38883E090100440
:1007D000F09011040091120410911304C801B701A4
:1007E0000E94E51E882777FD8095982F0E94181F8C
:1007F0009B01AC01C801B7010E94141E20E030E04B
:100800004AE754E40E94CC1F0E94E51E7B018C0144
:100810000CC08091B003C82FD0E0C258DC4F88E2F2
:100820008883E0907203F09073030027F7FC009533
:10083000102FC801B70141E00E94D6016983C801A9
:10084000B70142E00E94D6016A8383E0DF91CF9135
:100850001F910F91FF90EF9008958091B3038C3317
:1008600038F01092B3038091B2038F5F8093B2038C
:100870008091B2038C3348F01092B3031092B2030C
:100880008091B1038F5F8093B1038091B103883170
:1008900030F01092B3031092B2031092B103089596
:1008A000AF92BF92CF92DF92EF92FF920F931F937E
:1008B000E09131048E2F8350843008F042C0F0E084
:1008C000EE0FFF1FEE0FFF1FE55DFD4FA080B18013
:1008D000C280D380C601B50120E030E048EC52E48C
:1008E0000E947D1E7B018C0160917C0370E0882753
:1008F00077FD8095982F0E94181F9B01AC01C801BD
:10090000B7010E94CC1F9B01AC01C601B5010E943A
:10091000151E9B01AC01609110047091110480912F
:100920001204909113040E94791E882324F481E01C
:100930008093090106C080910901813011F4109261
:1009400009011F910F91FF90EF90DF90CF90BF9022
:10095000AF9008952F923F924F925F926F927F9245
:100960008F929F92AF92BF92CF92DF92EF92FF92BF
:100970000F931F93DF93CF93CDB7DEB72E970FB6AC
:10098000F894DEBF0FBECDBF00E312E062E2E62EB8
:1009900062E0F62E53E0C52ED12CCC0EDD1E42E4D3
:1009A000242E3AE0432E512C4C0E5D1E2FE0622E79
:1009B000712C6C0E7D1E99E0892E912C8C0E9D1E43
:1009C00084E9382E5E010894A11CB11C20912204F8
:1009D00030912304F8014081F701808191819C834B
:1009E0008B832D833E834F83F1E0F8878EEF8987D9
:1009F00096E09A8790914F059B87809101018C87A3
:100A0000809102018D872E869F5F90934F056FEF37
:100A10007FEFF2011CC021912627822F8295807FD3
:100A2000822790E0382F2227AC01A3E0440F551F06
:100A3000AA95E1F724273527672F772762277327A1
:100A4000A4E095958795AA95E1F768277927E6159B
:100A5000F70509F7F6011AC081918627282F2295FC
:100A6000207F282730E0722F6627C90143E0880FD6
:100A7000991F4A95E1F7682779276A277B27B4E011
:100A800035952795BA95E1F762277327A72FBB27DE
:100A9000E815F90509F7862F8325282F2295207F51
:100AA000282730E0922F8827A90163E0440F551FC3
:100AB0006A95E1F7842795278A279B2744E0359597
:100AC00027954A95E1F78227932789839A8380E0C7
:100AD00090E0BF0146E050E00E94160180E090E007
:100AE000B60146E050E00E94160180E090E0B501BA
:100AF00042E050E00E9416010F5F1F4FE2E0F0E07D
:100B0000EE0EFF1EF2E007331F0709F05FCF2E96AF
:100B10000FB6F894DEBF0FBECDBFCF91DF911F910E
:100B20000F91FF90EF90DF90CF90BF90AF909F908C
:100B30008F907F906F905F904F903F902F9008958F
:100B4000CF93DF93C0910701D0910801BE018827A0
:100B500077FD8095982F0E94181F9B01AC01609132
:100B600010047091110480911204909113040E945A
:100B70007D1E20E030E443E055E40E94CC1F26E6D1
:100B800036E646E850E40E947D1E0E94E51E88E09D
:100B9000653378072CF4E4E1F4E020E030E00DC0A8
:100BA000C630D105C4F72196D0930801C093070140
:100BB00007C0619371932F5F3F4F2C173D07CCF314
:100BC000DF91CF9108958F92AF92CF92EF92FF92E3
:100BD0000F931F9381309105A9F56F5F7F4FD9F572
:100BE00087EC93E060E045EC50E024EC30E000EC72
:100BF00010E0F1ECEF2EF12CCC24C394E8E9AE2EFA
:100C000070E2872E0E949C131092E5031092E60377
:100C10001092E7031092E8031092E9031092EA039E
:100C20001092EB031092EC031092EE031092ED037E
:100C30001092E4038FEE93E066E045E021E00E942D
:100C4000191A09C0892B39F46F5F7F4F21F48FEE99
:100C500093E00E94A1181F910F91FF90EF90CF9009
:100C6000AF908F90089580E090E06FEF7FEF0E944B
:100C7000E305089581E090E06FEF7FEF0E94E305C8
:100C800008958F929F92AF92BF92CF92DF92FF9280
:100C90000F931F93CF93DF93F62E4901C82EDD24C7
:100CA0008601000F111F5801AC0CBD1CE501CC0FD3
:100CB000DD1FCC0FDD1FC85BDA4F18828B819C8152
:100CC0008430910509F48EC0853091055CF4823042
:100CD000910509F443C0833091050CF0BFC09923FE
:100CE000C4F44FC28730910509F443C1883091059F
:100CF00044F48530910509F4DEC0069709F041C23D
:100D000007C18830910509F47AC1099709F039C201
:100D1000E7C18EEF681709F034C282E090E09C834F
:100D20008B8380E790E0C89ED001C99EB00DD89E0D
:100D3000B00D1124A859BB4F13961C92139788E34A
:100D400090E0C89EF001C99EF00DD89EF00D1124D0
:100D5000EE0FFF1FE659FB4F6083A4C1E5E6E617DF
:100D600088F489818F5F8983F501EE0FFF1FEE0FF5
:100D7000FF1FE65BFA4F80818F5F8083188281E0DE
:100D800090E02DC080E790E0C89EF001C99EF00D74
:100D9000D89EF00D1124E859FB4F63831D8280819A
:100DA0008627282F2295207F282730E0522F44279E
:100DB000C90163E0880F991F6A95E1F74827592711
:100DC000818190E04827592784E0359527958A95B9
:100DD000E1F7422753275183408384E090E09C83CE
:100DE0008B83CFC18CE190E0C89EF001C99EF00DCD
:100DF000D89EF00D1124EE0FFF1FEE0FFF1FE459D8
:100E0000FB4F608380E790E0C89EF001C99EF00D23
:100E1000D89EF00D1124E859FB4F80818627282F9A
:100E20002295207F282730E0522F4427C901B3E0C4
:100E3000880F991FBA95E1F748275927818190E0DB
:100E400048275927A4E035952795AA95E1F7422729
:100E500053275183408383E090E0C1CF80E790E047
:100E6000C89EF001C99EF00DD89EF00D1124E859DE
:100E7000FB4F658380818627282F2295207F282796
:100E800030E0522F4427C90163E0880F991F6A950B
:100E9000E1F748275927818190E04827592704E046
:100EA000359527950A95E1F74227532751834083CB
:100EB00085E090E094CF80E790E0C89EF001C99E65
:100EC000F00DD89EF00D1124E859FB4F6683808108
:100ED0008627282F2295207F282730E0522F44276D
:100EE000C901B3E0880F991FBA95E1F74827592740
:100EF000818190E048275927A4E035952795AA9548
:100F0000E1F7422753275183408386E090E067CF83
:100F100080E790E0C89EF001C99EF00DD89EF00DCC
:100F20001124E859FB4F678380818627282F22955B
:100F3000207F282730E0522F4427C90163E0880F23
:100F4000991F6A95E1F748275927818190E0482742
:100F5000592794E0359527959A95E1F7422753272D
:100F6000518340838381882309F446C087E090E061
:100F700036CF6D81F80183E0EE0FFF1F8A95E1F710
:100F8000E01BF10B319603E0EE0FFF1F0A95E1F72E
:100F9000E60FF11DE859FB4FF0826F5F6D8380E72C
:100FA00090E0C89EF001C99EF00DD89EF00D11246E
:100FB000E859FB4F80818F25282F2295207F2827F5
:100FC00030E0522F4427C901B3E0880F991FBA952A
:100FD000E1F748275927818190E048275927A4E065
:100FE00035952795AA95E1F74227532751834083EA
:100FF0008381681709F0C5C088E090E0F0CE80E7F3
:1010000090E0C89ED001C99EB00DD89EB00D1124AD
:10101000A859BB4F9C911796EC911797F0E0EE5DA5
:10102000FE4F80818927482F4295407F482750E016
:10103000342F2227CA0173E0880F991F7A95E1F7B0
:101040002827392711968C91119790E02827392766
:1010500064E0559547956A95E1F724273527119661
:101060003C932E938F2D90E0307082179307F9F008
:10107000F501EE0FFF1FEE0FFF1FE65BFA4F8081B9
:101080008F5F8083188281E090E09C838B83FEEFEA
:10109000FF1609F076C082E090E09C838B83139664
:1010A0001C9213978FEF9FEF8D939C936AC089E0FA
:1010B00090E09C838B83F80183E0EE0FFF1F8A95FD
:1010C000E1F7E01BF10B319603E0EE0FFF1F0A95ED
:1010D000E1F78D81E80FF11DE859FB4FF08251C017
:1010E000262F30E080E790E0C89EB001C99E700DC9
:1010F000D89E700D112468597B4FFB01818190E0CF
:1011000028173907E9F0F501EE0FFF1FEE0FFF1F5B
:10111000E65BFA4F80818F5F8083188281E090E0E8
:101120009C838B83FEEFFF1661F582E090E09C8349
:101130008B83EB011B828FEF9FEF9983888321C004
:1011400081E0888381E090E09C838B83F801B3E0A9
:10115000EE0FFF1FBA95E1F7E01BF10B3196A3E00C
:10116000EE0FFF1FAA95E1F78D81E80FF11DE759FA
:10117000FB4FF082DA01FB0180E701900D92815074
:10118000E1F7D601AA0FBB1FAC0DBD1DAA0FBB1FF7
:10119000AA0FBB1FA85BBA4F8C91813069F58CE117
:1011A00090E0C89EF001C99EF00DD89EF00D11246C
:1011B000EE0FFF1FEE0FFF1FE459FB4F80811696C5
:1011C0008C93169718968D919C911997892B21F4E1
:1011D0001B961C921E921A97F601EE0FFF1FEC0D44
:1011E000FD1DEE0FFF1FEE0FFF1FE85BFA4F80851E
:1011F0009185019691878087F601EE0FFF1FEC0D18
:10120000FD1DEE0FFF1FEE0FFF1FDF01A85BBA4FA2
:1012100016968C9116978F5FE4018E8318968D91A8
:101220009C91199799878887E65BFA4F80818A8716
:101230001B8610828C91DF91CF911F910F91FF90AF
:10124000DF90CF90BF90AF909F908F900895DF92E6
:10125000EF92FF920F931F938C01262FD42E33E829
:10126000E32E35E0F32EC701B801422F0E9412167B
:101270000F5F1F4FC701B8014D2D0E9412161F911D
:101280000F91FF90EF90DF9008959C01462F83E827
:1012900095E0B9010E941216089580E090E060EC9C
:1012A00040E00E94270982E090E060EF40EF0E945A
:1012B000270984E090E068EF44E00E94270986E077
:1012C00090E06CEC4CEC0E94270988E090E068E824
:1012D00048E80E9427098AE090E06AEA40EA0E9412
:1012E00027098CE090E06AEA4AEA0E9427098EE02A
:1012F00090E060EA40EA0E94270980E190E060EC1B
:1013000040EC0E94270982E190E060E840E80E94FA
:10131000270984E190E060E840E80E94270986E11F
:1013200090E060E840E80E94270988E190E060E8EA
:1013300040E80E9427098AE190E060E840E80E94C6
:1013400027098CE190E060E840E80E9427098EE1DF
:1013500090E060E840E80E94270980E290E060E0C9
:1013600040E00E94270982E290E060E040E00E94B5
:10137000270984E290E060E040E00E94270986E2CD
:1013800090E060E040E00E94270988E290E060E0A1
:1013900040E00E9427098AE290E060E040E00E947D
:1013A00027098CE290E060E040E00E9427098EE28D
:1013B00090E060E040E00E94270980E390E060E078
:1013C00040E00E94270982E390E060E040E00E9454
:1013D000270984E390E060E040E00E94270986E36B
:1013E00090E060E040E00E94270988E390E060E040
:1013F00040E00E9427098AE390E060E040E00E941C
:1014000027098CE390E060E040E00E9427098EE32A
:1014100090E060E040E00E94270980E490E060E016
:1014200041EA0E94270982E490E061E042EA0E94DA
:10143000270984E490E062E043EA0E94270986E4F9
:1014400090E063E044EA0E94270988E490E064E0C9
:1014500045EA0E9427098AE490E065E046EA0E9496
:1014600027098CE490E066E047EA0E9427098EE4B1
:1014700090E067E048EA0E94270980E590E068E094
:1014800049EA0E94270982E590E069E04AEA0E9461
:10149000270984E590E06AE04BEA0E94270986E587
:1014A00090E06BE04CEA0E94270988E590E06CE050
:1014B0004DEA0E9427098AE590E06DE04EEA0E941D
:1014C00027098CE590E06EE04FEA0E9427098EE53F
:1014D00090E06FE04FEB0E94270980E890E061E028
:1014E0000E94450981E890E062E00E94450982E897
:1014F00090E063E00E94450983E890E064E00E9488
:10150000450984E890E060E00E94450985E890E0A4
:101510006DE00E9445098CE890E061E00E94450979
:1015200088E990E06FE00E94450988EE93E066E16B
:101530000E9445098EEE93E065E10E94450982EF25
:1015400093E06BE20E94450984EF93E065E00E941E
:1015500045098DE890E060E00E9445090895BC01CE
:1015600083E895E00E940B1608950F931F93CF9385
:10157000DF9396E09093C603109274038091240445
:10158000823019F0843009F063C020912504309135
:1015900026042115310531F41092740381E0809303
:1015A000C6031EC02130310539F481E080937403F5
:1015B00082E08093C6031DC02230310539F482E0F9
:1015C0008093740383E08093C6031DC023303105EC
:1015D00039F483E08093740384E08093C6031DC0D4
:1015E0002430310531F485E0809374038093C60381
:1015F00019C02530310539F484E08093740386E006
:101600008093C60314C02630310539F486E08093F8
:10161000740381E08093C60312C02730310511F4B2
:1016200087E060C02830310511F488E065C02930BA
:10163000310529F489E08093740384E056C02A3090
:10164000310509F061C08AE08093740385E04DC0E4
:10165000813009F059C020912504309126042230B0
:10166000310529F4109274038093C6031DC021151F
:10167000310539F48BE08093740382E08093C603D4
:101680001DC02C30310539F484E08093740383E06D
:101690008093C6031BC02B30310531F49093740343
:1016A00084E08093C6031AC02530310539F48CE0FC
:1016B0008093740385E08093C6031AC026303105F9
:1016C00029F48DE08093740386E00FC02F3031053C
:1016D00029F485E08093740381E007C02A30310546
:1016E00039F483E08093740382E08093C6030CC0D6
:1016F0002130310549F487E08093740383E0F5CF0E
:101700000E5F0E3111F40DC000E010917403C02F74
:10171000D0E0CE01805C9F4F0E94AF0A181781F77E
:1017200004C081E18093680509C0CE010E94AF0A20
:1017300080936805CE0101960E94AF0A80936905E7
:10174000DF91CF911F910F9108952F923F924F9269
:101750005F926F927F928F929F92AF92BF92CF9241
:10176000DF92EF92FF920F931F93DF93CF93CDB74A
:10177000DEB7CC57D0400FB6F894DEBF0FBECDBF5A
:1017800001C387EC93E00E941E14682F80E0AE0135
:10179000435F5F4F9E012F5F3F4F0E9441068823AA
:1017A00009F4ECC281E08093200480910901863025
:1017B00011F4109209018C898D3109F476C28E31B1
:1017C00048F4813009F459C0813070F0883109F053
:1017D000D5C2BCC08A3409F424C2853A09F499C23E
:1017E0008E3109F0CBC26AC281E0809321048A89DC
:1017F000809322048B8980932304898D8093240411
:101800002D893E8930932604209325048091270456
:10181000909128042817390731F030932804209339
:1018200027040E94B50A109229048B8D87FFB3C24A
:1018300080917603882351F40E94B50A81E0809359
:1018400076038091C5038E7F8093C50381E08093EA
:1018500075030E94C41B0E94161F60932A04709394
:101860002B0480932C0490932D0480910A018130E5
:1018700009F084C280932E0481C26BA17CA180E018
:1018800090E00E94161F20E030E04AE754E40E94F6
:101890007D1E7B018C016093100470931104809372
:1018A0001204909313048BA9C82EDD24C7FCD09496
:1018B000D0923004C0922F040E94A005A090C503CE
:1018C000A0FC3FC0C801B70120E030E040E151E496
:1018D0000E94C81F1816ACF583E0A82AA092C50381
:1018E000E092C003F092C1030093C2031093C303BC
:1018F000C801B70120E030E040E951E40E94C81F70
:10190000181614F486E019C0C801B70120E030E0D1
:1019100040E751E40E94C81F181614F485E00DC07A
:10192000C801B70120E030E040E451E40E94C81F44
:10193000181614F484E001C083E0809331041092FF
:10194000BB03D0923004C0922F0418C26D8D7E8DDF
:101950008F8D98A10E94181F20E836E948E15BE4CA
:101960000E947D1E7B018C016093320470933304CE
:10197000809334049093350489A59AA564E670E0B9
:101980000E943B207093370460933604C801B7016E
:1019900020E030E040E050E00E94791E88237CF493
:1019A00083E580937003D801C701BF778093320429
:1019B00090933304A0933404B093350403C08EE4B1
:1019C00080937003E0903204F0903304009134046B
:1019D00010913504C801B7010E94E51E882777FDE4
:1019E0008095982F0E94181F1B012C01C801B70178
:1019F000A20191010E94141E20E030E040E752E471
:101A00000E94CC1F7B018C010E94E51E882777FD78
:101A10008095982F0E94181F3B014C01C801B70107
:101A2000A40193010E94141E20E030E040E752E43C
:101A30000E94CC1F5B016C01C201B10120E030E0CB
:101A400048EC52E40E94CC1FA40193010E94151E91
:101A50007B018C01C601B50120E030E048EC52E486
:101A60000E947D1E9B01AC01C801B7010E94151E9A
:101A7000609332047093330480933404909335045C
:101A800069A17AA18BA19CA10E94181F20E836E9C8
:101A900048E15BE40E947D1E7B018C0160934C0455
:101AA00070934D0480934E0490934F0420E030E0F7
:101AB00040E050E00E94791E88237CF487E5809303
:101AC0007103D801C701BF7780934C0490934D04F4
:101AD000A0934E04B0934F0403C085E48093710338
:101AE000E0904C04F0904D0400914E0410914F048E
:101AF000C801B7010E94E51E882777FD8095982FC1
:101B00000E94181F3B014C01609338047093390404
:101B100080933A0490933B04C801B701A401930158
:101B20000E94141E60933C0470933D0480933E0415
:101B300090933F0420E030E040E752E40E94CC1F45
:101B40005B016C010E94E51E882777FD8095982F28
:101B50000E94181F7B018C01609340047093410424
:101B60008093420490934304C601B501A8019701F4
:101B70000E94141E609344047093450480934604AD
:101B80009093470420E030E040E752E40E94CC1FED
:101B90005B016C01609348047093490480934A048C
:101BA00090934B04C401B30120E030E048EC52E4D0
:101BB0000E94CC1FA80197010E94151E7B018C0179
:101BC000C601B50120E030E048EC52E40E947D1EE1
:101BD0009B01AC01C801B7010E94151E60934C0423
:101BE00070934D0480934E0490934F046DA17EA199
:101BF0008FA198A50E94181F20E030E04AE754E426
:101C00000E947D1E6093500470935104809352048F
:101C10009093530489A9809354048AA9809355040E
:101C2000ADC0898D9A8DAB8DBC8D809356049093F9
:101C30005704A0935804B09359046DA17EA188273E
:101C400077FD8095982F0E94181F60935A04709317
:101C50005B0480935C0490935D048FA198A590939E
:101C60005F0480935E0485569040C19730F484E60B
:101C700090E090935F0480935E0480915E04909165
:101C80005F048739910520F010925F0410925E0482
:101C90008D8D9E8DAF8DB8A180936004909361046B
:101CA000A0936204B093630469C089A19AA164E619
:101CB00070E00E944F206093640460C06D8D7E8D43
:101CC0008F8D98A121EE3EE245E652E40E94CC1FA2
:101CD0000E94E51E60936504698D7A8D8B8D9C8DC5
:101CE00021EE3EE245E652E40E94CC1F0E94E51E32
:101CF0006093660469A17AA18BA19CA121EE3EE2CA
:101D000045E652E40E94CC1F0E94E51E60936704E2
:101D100035C06D897E8980E090E00E94161F20E02A
:101D200030E04AE754E40E947D1E7B018C01609301
:101D3000B5037093B6038093B7039093B8038F896C
:101D40008093B9031092BA03C801B70120E030E0D4
:101D500040E050E00E94791E882371F0C801B7016D
:101D600020E030E040E850E40E94791E882324F40B
:101D700081E08093B40302C01092B4038AE890E03B
:101D80000E942B1C87EC93E00E94EE131816190694
:101D90000CF4F7CC05C0109275031092760359CD60
:101DA000C458DF4F0FB6F894DEBF0FBECDBFCF9142
:101DB000DF911F910F91FF90EF90DF90CF90BF9038
:101DC000AF909F908F907F906F905F904F903F90DB
:101DD0002F9008950E94C41B9B01AC017093610574
:101DE000609360058091620590916305B901681B5D
:101DF000790B663071058CF1309363052093620591
:101E0000209164058091650590916605222311F06B
:101E1000019601C0019790936605809365056091D6
:101E20006505709166056F3F71052CF0213059F4FE
:101E30001092640508C0653171052CF4222319F451
:101E400081E080936405E0917903F0E0EE0FFF1FDD
:101E5000E55FFE4F80810E94921C08958091670586
:101E6000E091C603F0E054E0EE0FFF1F5A95E1F752
:101E7000E80FF11DE95BFD4F80917B0360810E94BB
:101E8000311D08950F931F93A0917703B0E00BE0ED
:101E900011E0AA0FBB1FA00FB11F80916705E09151
:101EA0000901F0E094E0EE0FFF1F9A95E1F7E80FCB
:101EB000F11DE95BFD4F8C9160810E94311D809185
:101EC000780390E0880F991F080F191F809167050C
:101ED000E0910901F0E064E0EE0FFF1F6A95E1F781
:101EE000E80FF11DE953FD4FD8018C9160810E94EC
:101EF000311D1F910F910895E0917A03F0E0EE0FEC
:101F0000FF1FE55FFE4F808160E00E94311D089554
:101F100020916705283078F487E090E0821B9109D2
:101F200021E030E002C0220F331F8A95E2F7809152
:101F30006805822312C040916905822F885088303D
:101F400060F427E030E0281B310981E090E002C016
:101F5000880F991F2A95E2F78423E0917A0388235A
:101F600041F0F0E0EE0FFF1FE55FFE4F808161E082
:101F700007C0F0E0EE0FFF1FE55FFE4F808160E0DD
:101F80000E94311D0895CF93DF93CBE0D1E088818B
:101F900060E00E94311D229681E0C931D807B9F76F
:101FA000DF91CF910895CF93DF93CBE0D1E088818B
:101FB00061E00E94311D229681E0C931D807B9F74E
:101FC000DF91CF910895EF92FF920F931F93CF93DC
:101FD000DF93CBE0D1E07C010027F7FC0095102FC8
:101FE000888161E00E94311DC801B7010E94D21BA7
:101FF000888160E00E94311DC801B7010E94D21B98
:10200000229681E0C731D80759F7DF91CF911F9110
:102010000F91FF90EF900895CF92DF92FF920F9370
:102020001F93CF93DF93182F8FEE93E06EE50E94FE
:10203000E518FF24C12EDD2449C08E0102581C4F33
:102040008FEE93E0F80160810E94E518F80161814C
:102050006D3559F06E3591F48FEE93E06DE50E9489
:10206000E5188FEE93E06EE30BC08FEE93E06DE525
:102070000E94E5188FEE93E06DE302C08FEE93E0CF
:102080000E94E518C258DC4F6A816D3559F06E35F3
:1020900091F48FEE93E06DE50E94E5188FEE93E0EA
:1020A0006EE30BC08FEE93E06DE50E94E5188FEEB6
:1020B00093E06DE302C08FEE93E00E94E5188FEE8F
:1020C00093E06EE50E94E518F3E0FF0ECF2DD0E01F
:1020D000CC15DD050CF4B1CF80E0DF91CF911F91DD
:1020E0000F91FF90DF90CF900895EF92FF920F93A2
:1020F0001F930E94C41B9B01AC0120936A0530937F
:102100006B0540936C0550936D0580916E05909121
:102110006F05A0917005B091710579018A01E81AE7
:10212000F90A0A0B1B0BD801C701893C9105A105CF
:10213000B1050CF4F9C020936E0530936F05409300
:1021400070055093710501E00093AF031091B00347
:1021500084E20E94F501180F1093B00385E20E94FB
:10216000F501180F1093B00386E20E94F501180FD5
:102170001093B00380E10E94F501180F1093B00393
:1021800081E20E94F501180F1093B00382E00E94D3
:10219000F501180F1093B00385E00E94F501180FA8
:1021A0001093B00386E00E94F501180F1093B0035E
:1021B00088E20E94F501180F1093B0038AE30E9491
:1021C000F501180F1093B0038BE30E94F501180F6F
:1021D0001093B00383E00E94F501180F1093B00331
:1021E0001092AF03812F0E940C108093B003809156
:1021F000AE0365E00E942F20992309F066C080910C
:10220000B3038F5F8093B3030E942D040093AF0349
:102210001091B00384E10E94F501180F1093B003F0
:102220008CE10E94F501180F1093B00383E10E9426
:10223000F501180F1093B0038BE10E94F501180F00
:102240001093B00383E20E94F501180F1093B003BE
:1022500082E10E94F501180F1093B0038AE10E94F9
:10226000F501180F1093B00382E20E94F501180FD8
:102270001093B00381E10E94F501180F1093B00391
:1022800089E10E94F501180F1093B00381E00E94CC
:10229000F501180F1093B00389E00E94F501180FA3
:1022A0001093B00384E00E94F501180F1093B0035F
:1022B00088E10E94F501180F1093B0031092AF034C
:1022C000812F0E940C108093B0038091AE0389315E
:1022D00030F181E08093AF031091B00385E10E945B
:1022E000F501180F1093B00386E10E94F501180F55
:1022F0001093B00387E10E94F501180F1093B0030B
:1023000088E10E94F501180F1093B0031092AF03FB
:10231000812F0E940C108093B0031092AE03809125
:10232000AE038F5F8093AE031F910F91FF90EF90EC
:102330000895809167058F5F80936705803141F430
:102340001092670580910B04843011F40E94AB1643
:102350000895EF92FF920F931F938091200488239A
:1023600091F080915404833020F484E0809309013B
:1023700002C0109209010E94500480917D038823BD
:1023800011F00E9475100E94420F0E942E0F0E94B1
:1023900099110E94C41B0E94161F7B018C01609141
:1023A0002A0470912B0480912C0490912D0420E03C
:1023B00030E84BE355E40E94151E9B01AC01C801B7
:1023C000B7010E94791E88230CF58091750388233C
:1023D00019F00E94880F02C00E947C0F6091C50313
:1023E00061FF1EC0862F8D7F8093C503679566278A
:1023F00067956093C40386E990E00E94450987E9E8
:1024000090E0609131040E9445090AC086E0809303
:1024100009010E947C0F81E080930A011092200440
:102420001F910F91FF90EF9008950E94EA0E809106
:102430002E04813081F5809119010E94851D892B20
:1024400051F50E94AA0462E370E080E090E00E94EF
:10245000D21B0E94AA0462E370E080E090E00E9438
:10246000D21B0E94AA0462E370E080E090E00E9428
:10247000D21B10922E040E94A50B10920A010E94FA
:10248000C41B0E94161F60932A0470932B04809330
:102490002C0490932D040E94A50B84EE93E00E94DF
:1024A0006C1608950F931F93CF93DF9387EC93E0FF
:1024B00040E051EE60E070E00E948C1384E10E94E5
:1024C000701C8F5F934081F58BE0809300018EE05C
:1024D00090E090930C0180930B0187E090E0909343
:1024E0000E0180930D0188E090E09093100180939D
:1024F0000F0189E090E090931201809311018AE02E
:1025000090E0909314018093130183E090E0909306
:1025100016018093150184E090E090931801809358
:10252000170182E090E02FC08AE0809300018EE0E6
:1025300090E090930C0180930B0188E090E09093E1
:102540000E0180930D0189E090E09093100180933B
:102550000F018AE090E0909312018093110184E0D2
:1025600090E0909314018093130183E090E09093A6
:1025700016018093150182E090E0909318018093FA
:10258000170187E090E090931A01809319018FEE74
:1025900093E040E855E260E070E00E94AF17809160
:1025A000190160E00E94F21C88EE93E00E94AF0ADD
:1025B000082F8EEE93E00E94AF0A10E0080F111D65
:1025C0000B32110511F00E944D098DE890E00E9438
:1025D000AF0A882311F00E944D0980E890E00E9424
:1025E000AF0A8093770381E890E00E94AF0A80935E
:1025F000780382E890E00E94AF0A8093790383E831
:1026000090E00E94AF0A80937A0385E890E00E94F0
:10261000AF0A80937B0388E990E00E94AF0A809321
:102620007C038CE890E00E94AF0A80937D0387ECE6
:1026300093E090930D0480930C04CBE0D1E088816B
:1026400061E00E94F21C229681E0C931D807B9F7F7
:10265000C0E0D0E089E190E00E94E30F2196C6300F
:10266000D105C1F7C0E0D0E00E94D30F64E670E06E
:1026700080E090E00E94D21B0E94C30F64E670E0ED
:1026800080E090E00E94D21B2196C330D10561F713
:102690000E94420F0E94AB1684EE93E069EA71E15A
:1026A00022E330E040E050E000E00E941E1684EE9D
:1026B00093E00E94841610922E048091C50310921C
:1026C00031048C7F8093C50386E990E00E94AF0AB5
:1026D0008093C4039091C50387FF0AC091609093D3
:1026E000C50387E990E00E94AF0A8093310403C0DC
:1026F0009E7F9093C50380E090E0A0E0B0E08093DF
:10270000600490936104A0936204B0936304DF912A
:10271000CF911F910F9108950F931F93DC01ED91BD
:10272000FC910288F389E02D20E030E000E010E029
:1027300009951F910F9108958F92AF92CF92EF92CA
:10274000FF920F931F93DF93CF93CDB7DEB7FC01BA
:102750001382128288EE93E0A0E0B0E08483958338
:10276000A683B7838BE493E0918380835587448766
:1027700037872687118B008BF38AE28AC48AA58A61
:10278000868A70E0CB0123E0880F991F2A95E1F734
:102790009C012E583A4F308F278B86589A4F928F34
:1027A000818F81E090E002C0880F991F6A95E2F75F
:1027B00020918205282B20938205CF0140E051EE25
:1027C00060E070E00E948C13CF91DF911F910F9118
:1027D000FF90EF90CF90AF908F900895FC01838D84
:1027E000882319F42FEF3FEF0DC00788F08DE02DFF
:1027F0002081318182819381281B390B84819581CD
:1028000028233923C9010895FC01838D882319F4F5
:102810002FEF3FEF11C0018CF28DE02D208131812F
:1028200082819381281B390B209530958481958175
:10283000282339232F5F3F4FC9010895FC01838D61
:10284000882361F0A789B08D2D913C911197129644
:102850008D919C9113972817390721F44FEF5FEF63
:10286000CA01089512968D919C9113971696ED9139
:10287000FC911797E80FF91F408112968D919C915A
:102880001397019614962D913C91159782239323CB
:1028900013969C938E93129750E0E2CFFC01838DA8
:1028A000882351F00788F08DE02D208131818281CD
:1028B00093812817390721F42FEF3FEFC9010895BD
:1028C000828193810680F781E02DE80FF91F8081D6
:1028D000282F30E0F3CFDC015796ED91FC9158970B
:1028E00082819381918380835996ED91FC915A97CF
:1028F00080819181938382830895DC015B968C9122
:102900005B978823A9F15996ED91FC915A97208104
:1029100031812F5F3F4F84819581282339235C9635
:102920008C915C97882329F082819381281739073D
:10293000F9F08281938128173907D9F38081918139
:102940000680F781E02DE80FF91F60835996ED911D
:10295000FC915A97318320835296ED91FC915397C5
:10296000808156969C91892B808321E030E002C0C3
:1029700020E030E0C9010895CF93DF93EC011B8282
:102980001A828A819B81998388831D821C828E8111
:102990009F81009721F00E94E41A1F821E82DF911E
:1029A000CF9108950F931F938C01DC015296ED9106
:1029B000FC915397208156968C91569755969C91F1
:1029C0005597892B80958223808357968D919C9172
:1029D00058970E94BC14F801818D928D0E94BC14FE
:1029E000D8015B961C921F910F9108950F931F932E
:1029F000CF93DF938C01FC01138212828281938139
:102A00009183808341E0A1E0B0E001C04F5FFD0110
:102A1000042E02C0EE0FFF1F0A94E2F79B0182E032
:102A20006130780710F020E032E0E217F30770F32E
:102A3000C1E0D0E002C0CC0FDD1F4A95E2F721973C
:102A4000F801268137812115310541F08481958176
:102A50008C179D0789F0C9010E94E41AF801D583FB
:102A6000C483CE0101960E94471A9C01F801978306
:102A7000868380E0232B09F081E0DF91CF911F91C5
:102A80000F910895AF92BF92CF92DF92EF92FF9293
:102A90000F931F93CF93DF937C015A016B01E901E0
:102AA000DC015B968C915B978823F1F02115310551
:102AB00039F45796ED91FC915897C481D5812196B0
:102AC0000115110549F4D7015996ED91FC915A97DA
:102AD000048115810F5F1F4FD701ED91FC91008894
:102AE000F189E02DC7010995F7018789908D20971D
:102AF00011F4C0E8D0E0BE010E94F614882381F0F2
:102B0000D70159968D919C915A970115110511F491
:102B100000E110E0B8010E94F614882309F04DC0CE
:102B2000D701ED91FC910088F189E02DC70109954D
:102B300067C0D7015096ED91FC915197B0E0AB166C
:102B4000B1EEBB06B0E0CB06B0E0DB0609F454C042
:102B500081E090E0D70154960C9002C0880F991F35
:102B60000A94E2F7808360E079E08DE390E0A601CB
:102B700095010E9484202150304040405040CA01BD
:102B8000B90122E030E040E050E00E948420D7010B
:102B90001C96ED91FC911D9730831E96ED91FC9152
:102BA0001F972083D7015296ED91FC915397808116
:102BB00055969C91892B808323C0D7015996ED911E
:102BC000FC915A9713821282828193819183808330
:102BD0005796ED91FC9158971382128282819381CE
:102BE0009183808381E05B968C931A141B041C04F0
:102BF0001D040CF49ECFD6CF108220E130E0C7CF69
:102C0000DF91CF911F910F91FF90EF90DF90CF90C8
:102C1000BF90AF900895F999FECF72BD61BDF89A4B
:102C200080B50895F999FECF1FBA72BD61BD40BD50
:102C30000FB6F894FA9AF99A0FBE08950F93FC0113
:102C40006115710511F480E011C021833283438343
:102C50005483728761870170000F000F000F80811D
:102C6000877F802B82608B7F808381E00F91089526
:102C7000CF93DF93EC010E94C41B9B01AC018D81BB
:102C80009E81AF81B885281739074A075B0728F46A
:102C9000888184FD02C060E00DC089819A81AB818A
:102CA000BC81820F931FA41FB51F8D839E83AF83AA
:102CB000B88761E0222757FD2395332744275527FE
:102CC000922F91709295907F88818F7E892B888337
:102CD000862FDF91CF910895CF93DF93EC01888108
:102CE00082FF0FC0CE010E943816882351F0E9857B
:102CF000FA85309709F00995888183FF02C08B7FA0
:102D00008883DF91CF910895CF93DF93EC0189857C
:102D10009A85892BE1F089819A81AB81BC810097EA
:102D2000A105B105A1F00E94C41B29813A814B8104
:102D30005C81260F371F481F591F2D833E834F8309
:102D40005887888184608F7E888381E001C080E01D
:102D5000DF91CF910895DF93CF9300D0CDB7DEB749
:102D60002091D1053091D205CE0101962115310572
:102D700019F4855D954002C0821B930B9A83898369
:102D800089819A810F900F90CF91DF9108950F93D1
:102D90001F93CF93DF93FC01738D76957170A68599
:102DA000B7859585772329F08C91892309F454C040
:102DB00004C08C91892309F04FC08389948920E055
:102DC00001972FEF8F3F9207D9F7C589D689A6853E
:102DD000B785158560E031E040E050E000E0CE01CD
:102DE000202F01972FEF8F3F9207D9F78C918123E6
:102DF00011F0632B03C0832F80956823330F4F5F3F
:102E00005F4F4830510559F78789908D20E0019731
:102E10002FEF8F3F9207D9F7711160958091C6050A
:102E20002091C70590E001968F73907030E0821773
:102E3000930779F0E091C605F0E0EA57FA4F608316
:102E40008091C60590E001968F7390708093C605BF
:102E500003C0838D8160838FDF91CF911F910F918C
:102E600008951F920F920FB60F9211242F933F9344
:102E70004F935F936F937F938F939F93AF93BF9382
:102E8000EF93FF938091840590918505009711F051
:102E90000E94C716FF91EF91BF91AF919F918F91C3
:102EA0007F916F915F914F913F912F910F900FBE46
:102EB0000F901F9018951F920F920FB60F9211242A
:102EC0002F933F934F935F936F937F938F939F9332
:102ED000AF93BF93EF93FF93809184059091850505
:102EE000009711F00E94C716FF91EF91BF91AF912B
:102EF0009F918F917F916F915F914F913F912F9112
:102F00000F900FBE0F901F9018951F920F920FB643
:102F10000F9211242F933F934F935F936F937F935F
:102F20008F939F93AF93BF93EF93FF93809184050B
:102F300090918505009711F00E94C716FF91EF91BF
:102F4000BF91AF919F918F917F916F915F914F91C1
:102F50003F912F910F900FBE0F901F901895CF9219
:102F6000DF92EF92FF920F931F93CF93DF93EC01C9
:102F70007A018B011A8E198E188E1F8A1E8A1D8A5D
:102F80001C8A1B8A20E030E06901CC0CDD1CC20EDB
:102F9000D31EB601660F771F660F771FAB01425233
:102FA0005F4FFA0185919591A591B4918E159F057A
:102FB000A007B107E9F4FB01EE51FF4F8591949111
:102FC0009C8B8B8BFB01EC51FF4F859194919E8BD9
:102FD0008D8BFB01EA51FF4F85919491988F8F8BD8
:102FE000FB01E851FF4F859194919A8F898F06C01C
:102FF0002F5F3F4F2D30310509F0C6CF8F89988D57
:10300000892B09F449C04C85463108F03DC09091A8
:103010006800483010F484E005C04E3010F082E0C3
:1030200001C081E0892B80936800483028F4EDE6E8
:10303000F0E0ADE6B0E00BC04E3028F0ECE6F0E09A
:10304000ACE6B0E004C0EBE6F0E0ABE6B0E0508107
:10305000483040F481E090E002C0880F991F4A9503
:10306000E2F710C0242F30E04E3018F428503040E2
:1030700002C02E50304081E090E002C0880F991FBE
:103080002A95E2F7852B8C93898D9A8D20E0019704
:103090002FEF8F3F9207D9F7809184059091850596
:1030A0008C179D0781F08B8D8E7F8B8F9FB7F89447
:1030B0001092C6058091C6058093C705D0938505FB
:1030C000C09384059FBFDF91CF911F910F91FF9017
:1030D000EF90DF90CF900895FC014485463180F554
:1030E000483028F4EDE6F0E0ADE6B0E00BC04E303D
:1030F00028F4EBE6F0E0ABE6B0E004C0ECE6F0E08C
:10310000ACE6B0E05081483040F481E090E002C08D
:10311000880F991F4A95E2F710C0242F30E04E30F7
:1031200018F42850304002C02E50304081E090E02A
:1031300002C0880F991F2A95E2F7809585238C930A
:103140000895FC0183E693E091838083CF010E9480
:103150006C1808952091840530918505281739074A
:1031600031F49091C7058091C605981719F42FEF97
:103170003FEF0FC0E091C705F0E0EA57FA4F20811A
:103180008091C70590E001968F7390708093C7057A
:1031900030E0C901089520918405309185052817F4
:1031A000390719F020E030E00EC08091C60520916B
:1031B000C70590E0805C9F4F821B910960E470E03E
:1031C0000E944F209C01C90108950F931F93DC01B9
:1031D00059968D919C915A97892B49F481E090E002
:1031E00013969C938E93129720E030E097C00FB710
:1031F000F8945B968C915B975196ED91FC91529768
:1032000050962C91509781FF8DC08081822B8083B6
:1032100059968D919C915A97059620E001972FEF32
:103220008F3F9207D9F75B968C915B9781FF35C0F2
:1032300031E040E050E070E010E0832F90E0862322
:1032400097235196ED91FC91529750962C9150975F
:10325000892B29F0808120952823208303C0808139
:10326000822B808359968D919C915A97212F01979B
:103270002FEF8F3F9207D9F7330F4F5F5F4F4830E3
:103280005105D9F65196ED91FC9152979081509647
:103290008C9150978095892333C031E040E050E015
:1032A00070E010E0832F90E0862397235196ED91F4
:1032B000FC91529750962C915097892B21F0808148
:1032C000822B808304C080812095282320835996F7
:1032D0008D919C915A97212F01972FEF8F3F920745
:1032E000D9F7330F4F5F5F4F48305105D9F65196EC
:1032F000ED91FC915297808150969C915097892B2B
:1033000080830FBF59968D919C915A9720E0019729
:103310002FEF8F3F9207D9F721E030E0C9011F91CD
:103320000F910895808120952823208371CF2091CB
:103330008405309185052817390749F49FB7F8941B
:103340001092C6058091C6058093C7059FBF08955A
:1033500020918405309185052817390731F4909123
:10336000C7058091C605981719F42FEF3FEF0AC0E3
:10337000E091C705F0E0EA57FA4F8081282F332704
:1033800027FD3095C90108951F93CF93DF93EC017A
:10339000162F862F60E00E94F21C8B8D81FD04C0E9
:1033A000812F61E00E94311D1C87212F30E0C9016F
:1033B00084559E4FFC0184918D8728563E4FF9011C
:1033C0006491E62FF0E0EE0FFF1FE257FE4F85916C
:1033D00094919F878E87DF91CF911F9108951F93BE
:1033E000CF93DF93EC01162F862F61E00E94F21C31
:1033F00060E08B8D81FF61E0812F0E94311D212FC4
:1034000030E0C90184559E4FFC018491888B285679
:103410003E4FF9016491E62FF0E0EE0FFF1FEC57ED
:10342000FE4F859194919A8B898BDF91CF911F915B
:103430000895FF920F931F938C01F62EFC011382C7
:10344000128288EE93E0A0E0B0E084839583A683A7
:10345000B78383E693E091838083148A138A168A64
:10346000158A108E178A128E118E838D2170220F6D
:103470008C7F822B838FC801642F0E94EF19C801B3
:103480006F2D0E94C4191F910F91FF9008950F9303
:103490001F93CF93DF93BC018230910510F462E05B
:1034A00070E0E091D305F091D40540E050E0A0E059
:1034B000B0E024C08081918186179707D0F08617ED
:1034C000970771F482819381109729F013969C934A
:1034D0008E9312972CC09093D4058093D30527C068
:1034E0004115510519F08417950718F48D01AC01A9
:1034F000EF01DF01828193819C01F9013097D1F6C0
:1035000041155105F9F0CA01861B970B84309105CE
:1035100080F48A819B810115110521F0F8019383C4
:10352000828304C09093D4058093D305FE01329624
:1035300045C0FE01E80FF91F6193719302979983CB
:1035400088833CC08091D1059091D205892B41F4AC
:1035500080911D0190911E019093D2058093D10519
:1035600040911F01509120014115510541F44DB783
:103570005EB780911B0190911C01481B590B209153
:10358000D1053091D20524173507B0F4CA01821B4A
:10359000930B8617970780F0AB014E5F5F4F841740
:1035A000950750F0420F531F5093D2054093D10519
:1035B000F9016193719302C0E0E0F0E0CF01DF9187
:1035C000CF911F910F910895CF93DF939C010097A6
:1035D00009F48FC0EC0122971B821A826091D305F7
:1035E0007091D4056115710581F488819981820FEC
:1035F000931F2091D1053091D2052817390739F54D
:10360000D093D205C093D10574C0DB0140E050E0F7
:10361000AC17BD0708F1BB83AA83FE01219131914C
:10362000E20FF31FAE17BF0779F48D919C911197AC
:10363000280F391F2E5F3F4F3983288312968D91B3
:103640009C9113979B838A834115510571F4D09304
:10365000D405C093D3054DC012968D919C911397BC
:10366000AD01009711F0DC01D3CFDA011396DC93A2
:10367000CE931297FA0121913191E20FF31FCE17E9
:10368000DF0769F488819981280F391F2E5F3F4F2A
:10369000FA01318320838A819B8193838283E0E0D6
:1036A000F0E0DB0112968D919C911397009719F031
:1036B000BC01FD01F6CFAB014E5F5F4FDB018D9189
:1036C0009C91840F951F2091D1053091D205281728
:1036D000390779F4309729F41092D4051092D30564
:1036E00002C013821282425050405093D205409340
:1036F000D105DF91CF9108951F920F920FB60F92CF
:1037000011242F933F938F939F93AF93BF938091F7
:10371000CC059091CD05A091CE05B091CF0530910B
:10372000D0050196A11DB11D232F2D5F2D3720F04F
:103730002D570196A11DB11D2093D0058093CC0576
:103740009093CD05A093CE05B093CF058091C80589
:103750009091C905A091CA05B091CB050196A11D14
:10376000B11D8093C8059093C905A093CA05B09375
:10377000CB05BF91AF919F918F913F912F910F906A
:103780000FBE0F901F9018958FB7F8942091CC051D
:103790003091CD054091CE055091CF058FBFB90135
:1037A000CA0108959B01AC017FB7F8948091C805C8
:1037B0009091C905A091CA05B091CB0566B5A89BAB
:1037C00005C06F3F19F00196A11DB11D7FBFBA2F33
:1037D000A92F982F8827860F911DA11DB11D62E08A
:1037E000880F991FAA1FBB1F6A95D1F7BC012DC076
:1037F000FFB7F8948091C8059091C905A091CA05BA
:10380000B091CB05E6B5A89B05C0EF3F19F0019636
:10381000A11DB11DFFBFBA2FA92F982F88278E0F8A
:10382000911DA11DB11DE2E0880F991FAA1FBB1FAA
:10383000EA95D1F7861B970B885E9340C8F221501A
:1038400030404040504068517C4F211531054105C2
:10385000510571F60895019739F0880F991F880F67
:10386000991F02970197F1F70895789484B58260C3
:1038700084BD84B5816084BD85B5826085BD85B514
:10388000816085BDEEE6F0E0808181608083E1E8C3
:10389000F0E01082808182608083808181608083FB
:1038A000E0E8F0E0808181608083E1EBF0E08081FE
:1038B00084608083E0EBF0E0808181608083EAE7D0
:1038C000F0E0808184608083808182608083808159
:1038D000816080838081806880831092C100089518
:1038E000982F8E3008F09E5097708091210182951C
:1038F000880F880F807C892B80937C0080917A00D0
:10390000806480937A0080917A0086FDFCCF2091BC
:10391000780040917900942F80E030E0282B392BFB
:10392000C90108951F93CF93DF93182FEB0161E036
:103930000E94F21C209709F44AC0CF3FD10509F438
:1039400049C0E12FF0E0E054FE4F84918330C1F094
:10395000843028F4813051F08230B1F50CC08630CB
:1039600019F1873049F1843079F514C084B5806845
:1039700084BDC7BD33C084B5806284BDC8BD2EC0C0
:1039800080918000806880938000D0938900C093EC
:10399000880024C080918000806280938000D09352
:1039A0008B00C0938A001AC08091B0008068809319
:1039B000B000C093B30012C08091B00080628093C9
:1039C000B000C093B4000AC0C038D1051CF4812FE8
:1039D00060E002C0812F61E00E94311DDF91CF9134
:1039E0001F910895CF93DF93482F50E0CA0184556B
:1039F0009E4FFC01349148565E4FFA018491882312
:103A000069F190E0880F991FFC01E658FE4FA591DF
:103A1000B491FC01EC57FE4FC591D491662351F44B
:103A20002FB7F8948C91932F909589238C9388814C
:103A300089230BC0623061F42FB7F8948C91932FD7
:103A4000909589238C938881832B88832FBF06C010
:103A50009FB7F8948C91832B8C939FBFDF91CF916C
:103A60000895482F50E0CA0180549E4FFC012491D4
:103A7000CA0184559E4FFC01949148565E4FFA014D
:103A80003491332309F440C0222351F1233071F0E3
:103A9000243028F42130A1F0223011F514C0263052
:103AA000B1F02730C1F02430D9F404C080918000F7
:103AB0008F7703C0809180008F7D8093800010C03D
:103AC00084B58F7702C084B58F7D84BD09C0809195
:103AD000B0008F7703C08091B0008F7D8093B000DD
:103AE000E32FF0E0EE0FFF1FEC57FE4FA591B491CE
:103AF0002FB7F894662321F48C919095892302C006
:103B00008C91892B8C932FBF0895682F70E0CB0187
:103B100080549E4FFC012491CB0184559E4FFC01A3
:103B2000449168567E4FFB019491992319F420E04B
:103B300030E03CC0222351F1233071F0243028F4CE
:103B40002130A1F0223011F514C02630B1F0273019
:103B5000C1F02430D9F404C0809180008F7703C075
:103B6000809180008F7D8093800010C084B58F7716
:103B700002C084B58F7D84BD09C08091B0008F776D
:103B800003C08091B0008F7D8093B000892F90E0BA
:103B9000880F991F82579E4FFC01A591B4918C917B
:103BA00020E030E0842311F021E030E0C9010895E5
:103BB0000895CF93DF930E94351C0E94D81D0E9468
:103BC0005212C0E0D0E00E9415122097E1F30E944B
:103BD0000000F9CFCF92DF92EF92FF920F931F93E5
:103BE000CF93DF937C016B018A01C0E0D0E00FC06E
:103BF000D6016D916D01D701ED91FC910190F0819D
:103C0000E02DC7010995C80FD91F015010400115BB
:103C1000110571F7CE01DF91CF911F910F91FF90A8
:103C2000EF90DF90CF9008955058BB27AA270ED071
:103C300075C166D130F06BD120F031F49F3F11F4A3
:103C40001EF45BC10EF4E095E7FB51C1E92F77D17B
:103C500080F3BA17620773078407950718F071F4A9
:103C60009EF58FC10EF4E0950B2EBA2FA02D0B01FF
:103C7000B90190010C01CA01A0011124FF27591BB1
:103C800099F0593F50F4503E68F11A16F040A22FB7
:103C9000232F342F4427585FF3CF46953795279528
:103CA000A795F0405395C9F77EF41F16BA0B620B27
:103CB000730B840BBAF09150A1F0FF0FBB1F661F6E
:103CC000771F881FC2F70EC0BA0F621F731F841FB1
:103CD00048F4879577956795B795F7959E3F08F0D7
:103CE000B3CF9395880F08F09927EE0F9795879596
:103CF0000895D9D008F481E008950CD00FC107D100
:103D000040F0FED030F021F45F3F19F0F0C05111C7
:103D100039C1F3C014D198F39923C9F35523B1F3F2
:103D2000951B550BBB27AA2762177307840738F02A
:103D30009F5F5F4F220F331F441FAA1FA9F333D089
:103D40000E2E3AF0E0E830D091505040E695001C3D
:103D5000CAF729D0FE2F27D0660F771F881FBB1FF9
:103D6000261737074807AB07B0E809F0BB0B802DD3
:103D7000BF01FF2793585F4F2AF09E3F510568F01F
:103D8000B6C000C15F3FECF3983EDCF386957795B3
:103D90006795B795F7959F5FC9F7880F911D969521
:103DA000879597F90895E1E0660F771F881FBB1F7D
:103DB000621773078407BA0720F0621B730B840B2A
:103DC000BA0BEE1F88F7E095089504D06894B111FE
:103DD000D9C00895BCD088F09F5790F0B92F99278B
:103DE000B751A0F0D1F0660F771F881F991F1AF006
:103DF000BA95C9F712C0B13081F0C3D0B1E00895CF
:103E0000C0C0672F782F8827B85F39F0B93FCCF34F
:103E1000869577956795B395D9F73EF490958095FB
:103E2000709561957F4F8F4F9F4F0895E89409C01B
:103E300097FB3EF490958095709561957F4F8F4FDD
:103E40009F4F9923A9F0F92F96E9BB279395F695F3
:103E5000879577956795B795F111F8CFFAF4BB0F71
:103E600011F460FF1BC06F5F7F4F8F4F9F4F16C0D5
:103E7000882311F096E911C0772321F09EE8872F5F
:103E8000762F05C0662371F096E8862F70E060E01B
:103E90002AF09A95660F771F881FDAF7880F969594
:103EA000879597F90895990F0008550FAA0BE0E838
:103EB000FEEF16161706E807F907C0F012161306EC
:103EC000E407F50798F0621B730B840B950B39F42C
:103ED0000A2661F0232B242B252B21F408950A2692
:103EE00009F4A140A6958FEF811D811D089597F9D2
:103EF0009F6780E870E060E008959FEF80EC089590
:103F000000240A94161617061806090608950024B8
:103F10000A9412161306140605060895092E039432
:103F2000000C11F4882352F0BB0F40F4BF2B11F4A6
:103F300060FF04C06F5F7F4F8F4F9F4F089557FD05
:103F40009058440F551F59F05F3F71F04795880F07
:103F500097FB991F61F09F3F79F08795089512169E
:103F600013061406551FF2CF4695F1DF08C016164A
:103F700017061806991FF1CF8695710561050894FB
:103F80000895E894BB2766277727CB0197F9089512
:103F90008ADF08F48FEF08950BD0C0CFB1DF28F08F
:103FA000B6DF18F0952309F0A2CFA7CF1124EACFEE
:103FB000C6DFA0F3959FD1F3950F50E0551F629F88
:103FC000F001729FBB27F00DB11D639FAA27F00D72
:103FD000B11DAA1F649F6627B00DA11D661F829F99
:103FE0002227B00DA11D621F739FB00DA11D621F7E
:103FF000839FA00D611D221F749F3327A00D611D9B
:10400000231F849F600D211D822F762F6A2F11247C
:104010009F5750408AF0E1F088234AF0EE0FFF1FCF
:10402000BB1F661F771F881F91505040A9F79E3F06
:10403000510570F05CCFA6CF5F3FECF3983EDCF308
:10404000869577956795B795F795E7959F5FC1F743
:10405000FE2B880F911D9695879597F90895991BCA
:1040600079E004C0991F961708F0961B881F7A956F
:10407000C9F780950895AA1BBB1B51E107C0AA1F71
:10408000BB1FA617B70710F0A61BB70B881F991FF9
:104090005A95A9F780959095BC01CD01089597FB9D
:1040A000092E07260AD077FD04D0E5DF06D00020D0
:1040B0001AF4709561957F4F0895F6F79095819564
:1040C0009F4F0895A1E21A2EAA1BBB1BFD010DC034
:1040D000AA1FBB1FEE1FFF1FA217B307E407F507B8
:1040E00020F0A21BB30BE40BF50B661F771F881F94
:1040F000991F1A9469F760957095809590959B012A
:10410000AC01BD01CF01089597FB092E05260ED005
:1041100057FD04D0D7DF0AD0001C38F450954095E5
:10412000309521953F4F4F4F5F4F0895F6F790958B
:104130008095709561957F4F8F4F9F4F0895EE0F3B
:10414000FF1F0590F491E02D099411E0C6EDD1E038
:1041500004C0FE010E94A1202296C83DD107C9F7E4
:04416000F894FFCF01
:104164000A0C0100000000030006010E000800090B
:10417400000A0004000300020007008000D50500C7
:104184000001327C8900EDD96877000000590000F5
:10419400000000000000D69FDCA81817AA90437303
:1041A40027F6B968EDF4DED409FEE61C1C84DDE8CC
:1041B4000B992927D6DF8D210F036418EFEE1EC853
:1041C400B7008200941500347C0000001400988F1E
:1041D4000000000000000000000000E7B73F3600C8
:1041E400000000000000AF669ED038000000000010
:1041F40000000000000000000000000000000000BB
:1042040000000000000000000000000000000000AA
:10421400000000000000000086DBD0BC541613151B
:1042240086004E44BD7F2A151500000000000000E2
:10423400000000000000000000000000000000007A
:10424400000000000000000000000000000000006A
:10425400000000000000000000000000000000005A
:10426400000000000000000000000000000000004A
:104274000000000000000000000000CC31AA2C5314
:104284002E000200020005000200050002000200E8
:10429400010203060A0B0C0000104100004041001B
:1042A400007041000090410101010101010101017F
:1042B40001010101010101000100010001000100EF
:1042C40001000100010001010001000100010001E1
:1042D40000010001000100010100000101000001D2
:1042E40001000001010000010101010101010101BE
:1042F40001000001010000010101010101010101AE
:1043040001010101010101000000000000000001A1
:104314000101010101010100000000000000000092
:104324000000000000000001010101010101010180
:10433400010101010101010100010001000100016D
:104344000001000100010001000100010001000161
:104354000001000100010001010000010100000151
:10436400010000010100000101010101010101013D
:10437400010000010100000101010101010101012D
:10438400010101010101010101010101010101001A
:104394000000000000000000000000000000000019
:1043A40000000000000000000000007D14EA1DEE83
:1043B400131E144E146B1404148C13D214421500DF
:1043C400000000E518EA1DCB18AA18A819971900CF
:00000001FF
